{
  "_format": "hh-sol-artifact-1",
  "contractName": "Mint409",
  "sourceName": "contracts/Mint409.sol",
  "abi": [
    {
      "inputs": [
        {
          "internalType": "string",
          "name": "initBaseURI",
          "type": "string"
        }
      ],
      "stateMutability": "nonpayable",
      "type": "constructor"
    },
    {
      "inputs": [
        {
          "internalType": "address",
          "name": "operator",
          "type": "address"
        }
      ],
      "name": "OperatorNotAllowed",
      "type": "error"
    },
    {
      "anonymous": false,
      "inputs": [
        {
          "indexed": true,
          "internalType": "address",
          "name": "owner",
          "type": "address"
        },
        {
          "indexed": true,
          "internalType": "address",
          "name": "approved",
          "type": "address"
        },
        {
          "indexed": true,
          "internalType": "uint256",
          "name": "tokenId",
          "type": "uint256"
        }
      ],
      "name": "Approval",
      "type": "event"
    },
    {
      "anonymous": false,
      "inputs": [
        {
          "indexed": true,
          "internalType": "address",
          "name": "owner",
          "type": "address"
        },
        {
          "indexed": true,
          "internalType": "address",
          "name": "operator",
          "type": "address"
        },
        {
          "indexed": false,
          "internalType": "bool",
          "name": "approved",
          "type": "bool"
        }
      ],
      "name": "ApprovalForAll",
      "type": "event"
    },
    {
      "anonymous": false,
      "inputs": [
        {
          "indexed": true,
          "internalType": "address",
          "name": "previousOwner",
          "type": "address"
        },
        {
          "indexed": true,
          "internalType": "address",
          "name": "newOwner",
          "type": "address"
        }
      ],
      "name": "OwnershipTransferred",
      "type": "event"
    },
    {
      "anonymous": false,
      "inputs": [
        {
          "indexed": false,
          "internalType": "uint256",
          "name": "tokenId",
          "type": "uint256"
        },
        {
          "components": [
            {
              "internalType": "address payable",
              "name": "account",
              "type": "address"
            },
            {
              "internalType": "uint96",
              "name": "value",
              "type": "uint96"
            }
          ],
          "indexed": false,
          "internalType": "struct LibPart.Part[]",
          "name": "royalties",
          "type": "tuple[]"
        }
      ],
      "name": "RoyaltiesSet",
      "type": "event"
    },
    {
      "anonymous": false,
      "inputs": [
        {
          "indexed": true,
          "internalType": "address",
          "name": "from",
          "type": "address"
        },
        {
          "indexed": true,
          "internalType": "address",
          "name": "to",
          "type": "address"
        },
        {
          "indexed": true,
          "internalType": "uint256",
          "name": "tokenId",
          "type": "uint256"
        }
      ],
      "name": "Transfer",
      "type": "event"
    },
    {
      "anonymous": false,
      "inputs": [
        {
          "indexed": true,
          "internalType": "address",
          "name": "owner",
          "type": "address"
        },
        {
          "indexed": false,
          "internalType": "uint256",
          "name": "id",
          "type": "uint256"
        }
      ],
      "name": "newTokenMinted",
      "type": "event"
    },
    {
      "inputs": [
        {
          "internalType": "address",
          "name": "to",
          "type": "address"
        },
        {
          "internalType": "uint256",
          "name": "tokenId",
          "type": "uint256"
        }
      ],
      "name": "approve",
      "outputs": [],
      "stateMutability": "nonpayable",
      "type": "function"
    },
    {
      "inputs": [
        {
          "internalType": "address",
          "name": "owner",
          "type": "address"
        }
      ],
      "name": "balanceOf",
      "outputs": [
        {
          "internalType": "uint256",
          "name": "",
          "type": "uint256"
        }
      ],
      "stateMutability": "view",
      "type": "function"
    },
    {
      "inputs": [],
      "name": "baseURI",
      "outputs": [
        {
          "internalType": "string",
          "name": "",
          "type": "string"
        }
      ],
      "stateMutability": "view",
      "type": "function"
    },
    {
      "inputs": [
        {
          "internalType": "address",
          "name": "",
          "type": "address"
        }
      ],
      "name": "claimed",
      "outputs": [
        {
          "internalType": "bool",
          "name": "",
          "type": "bool"
        }
      ],
      "stateMutability": "view",
      "type": "function"
    },
    {
      "inputs": [
        {
          "internalType": "uint256",
          "name": "tokenId",
          "type": "uint256"
        }
      ],
      "name": "getApproved",
      "outputs": [
        {
          "internalType": "address",
          "name": "",
          "type": "address"
        }
      ],
      "stateMutability": "view",
      "type": "function"
    },
    {
      "inputs": [],
      "name": "getListTokenID",
      "outputs": [
        {
          "internalType": "uint256[]",
          "name": "",
          "type": "uint256[]"
        }
      ],
      "stateMutability": "view",
      "type": "function"
    },
    {
      "inputs": [],
      "name": "getListTokenOwners",
      "outputs": [
        {
          "components": [
            {
              "internalType": "uint256",
              "name": "tokenId",
              "type": "uint256"
            },
            {
              "internalType": "address",
              "name": "owner",
              "type": "address"
            }
          ],
          "internalType": "struct Mint409.token[]",
          "name": "",
          "type": "tuple[]"
        }
      ],
      "stateMutability": "view",
      "type": "function"
    },
    {
      "inputs": [
        {
          "internalType": "uint256",
          "name": "id",
          "type": "uint256"
        }
      ],
      "name": "getRaribleV2Royalties",
      "outputs": [
        {
          "components": [
            {
              "internalType": "address payable",
              "name": "account",
              "type": "address"
            },
            {
              "internalType": "uint96",
              "name": "value",
              "type": "uint96"
            }
          ],
          "internalType": "struct LibPart.Part[]",
          "name": "",
          "type": "tuple[]"
        }
      ],
      "stateMutability": "view",
      "type": "function"
    },
    {
      "inputs": [],
      "name": "infoContract",
      "outputs": [
        {
          "internalType": "address",
          "name": "",
          "type": "address"
        },
        {
          "internalType": "uint256",
          "name": "",
          "type": "uint256"
        }
      ],
      "stateMutability": "view",
      "type": "function"
    },
    {
      "inputs": [
        {
          "internalType": "address",
          "name": "owner",
          "type": "address"
        },
        {
          "internalType": "address",
          "name": "operator",
          "type": "address"
        }
      ],
      "name": "isApprovedForAll",
      "outputs": [
        {
          "internalType": "bool",
          "name": "",
          "type": "bool"
        }
      ],
      "stateMutability": "view",
      "type": "function"
    },
    {
      "inputs": [],
      "name": "maxSupply",
      "outputs": [
        {
          "internalType": "uint256",
          "name": "",
          "type": "uint256"
        }
      ],
      "stateMutability": "view",
      "type": "function"
    },
    {
      "inputs": [
        {
          "internalType": "bytes32[]",
          "name": "merkleProof",
          "type": "bytes32[]"
        },
        {
          "internalType": "uint256",
          "name": "tokenId",
          "type": "uint256"
        }
      ],
      "name": "mint",
      "outputs": [],
      "stateMutability": "payable",
      "type": "function"
    },
    {
      "inputs": [],
      "name": "name",
      "outputs": [
        {
          "internalType": "string",
          "name": "",
          "type": "string"
        }
      ],
      "stateMutability": "view",
      "type": "function"
    },
    {
      "inputs": [],
      "name": "owner",
      "outputs": [
        {
          "internalType": "address",
          "name": "",
          "type": "address"
        }
      ],
      "stateMutability": "view",
      "type": "function"
    },
    {
      "inputs": [
        {
          "internalType": "uint256",
          "name": "tokenId",
          "type": "uint256"
        }
      ],
      "name": "ownerOf",
      "outputs": [
        {
          "internalType": "address",
          "name": "",
          "type": "address"
        }
      ],
      "stateMutability": "view",
      "type": "function"
    },
    {
      "inputs": [],
      "name": "renounceOwnership",
      "outputs": [],
      "stateMutability": "nonpayable",
      "type": "function"
    },
    {
      "inputs": [
        {
          "internalType": "uint256",
          "name": "",
          "type": "uint256"
        },
        {
          "internalType": "uint256",
          "name": "",
          "type": "uint256"
        }
      ],
      "name": "royalties",
      "outputs": [
        {
          "internalType": "address payable",
          "name": "account",
          "type": "address"
        },
        {
          "internalType": "uint96",
          "name": "value",
          "type": "uint96"
        }
      ],
      "stateMutability": "view",
      "type": "function"
    },
    {
      "inputs": [
        {
          "internalType": "address",
          "name": "from",
          "type": "address"
        },
        {
          "internalType": "address",
          "name": "to",
          "type": "address"
        },
        {
          "internalType": "uint256",
          "name": "tokenId",
          "type": "uint256"
        }
      ],
      "name": "safeTransferFrom",
      "outputs": [],
      "stateMutability": "nonpayable",
      "type": "function"
    },
    {
      "inputs": [
        {
          "internalType": "address",
          "name": "from",
          "type": "address"
        },
        {
          "internalType": "address",
          "name": "to",
          "type": "address"
        },
        {
          "internalType": "uint256",
          "name": "tokenId",
          "type": "uint256"
        },
        {
          "internalType": "bytes",
          "name": "data",
          "type": "bytes"
        }
      ],
      "name": "safeTransferFrom",
      "outputs": [],
      "stateMutability": "nonpayable",
      "type": "function"
    },
    {
      "inputs": [],
      "name": "salePrice",
      "outputs": [
        {
          "internalType": "uint256",
          "name": "",
          "type": "uint256"
        }
      ],
      "stateMutability": "view",
      "type": "function"
    },
    {
      "inputs": [
        {
          "internalType": "address",
          "name": "operator",
          "type": "address"
        },
        {
          "internalType": "bool",
          "name": "approved",
          "type": "bool"
        }
      ],
      "name": "setApprovalForAll",
      "outputs": [],
      "stateMutability": "nonpayable",
      "type": "function"
    },
    {
      "inputs": [
        {
          "internalType": "string",
          "name": "updateBaseURI",
          "type": "string"
        }
      ],
      "name": "setBaseURI",
      "outputs": [],
      "stateMutability": "nonpayable",
      "type": "function"
    },
    {
      "inputs": [
        {
          "internalType": "uint256",
          "name": "_tokenId",
          "type": "uint256"
        },
        {
          "internalType": "address payable",
          "name": "_royaltiesReceipientAddress",
          "type": "address"
        },
        {
          "internalType": "uint96",
          "name": "_percentageBasisPoints",
          "type": "uint96"
        }
      ],
      "name": "setRoyalties",
      "outputs": [],
      "stateMutability": "nonpayable",
      "type": "function"
    },
    {
      "inputs": [
        {
          "internalType": "uint256",
          "name": "updateSalePrice",
          "type": "uint256"
        }
      ],
      "name": "setSalePrice",
      "outputs": [],
      "stateMutability": "nonpayable",
      "type": "function"
    },
    {
      "inputs": [
        {
          "internalType": "bytes32",
          "name": "merkleRoot",
          "type": "bytes32"
        }
      ],
      "name": "setWhitelistMerkleRoot",
      "outputs": [],
      "stateMutability": "nonpayable",
      "type": "function"
    },
    {
      "inputs": [
        {
          "internalType": "bytes4",
          "name": "interfaceId",
          "type": "bytes4"
        }
      ],
      "name": "supportsInterface",
      "outputs": [
        {
          "internalType": "bool",
          "name": "",
          "type": "bool"
        }
      ],
      "stateMutability": "view",
      "type": "function"
    },
    {
      "inputs": [],
      "name": "symbol",
      "outputs": [
        {
          "internalType": "string",
          "name": "",
          "type": "string"
        }
      ],
      "stateMutability": "view",
      "type": "function"
    },
    {
      "inputs": [
        {
          "internalType": "address",
          "name": "",
          "type": "address"
        }
      ],
      "name": "tokenAvatar",
      "outputs": [
        {
          "internalType": "uint256",
          "name": "",
          "type": "uint256"
        }
      ],
      "stateMutability": "view",
      "type": "function"
    },
    {
      "inputs": [],
      "name": "tokenCount",
      "outputs": [
        {
          "internalType": "uint256",
          "name": "",
          "type": "uint256"
        }
      ],
      "stateMutability": "view",
      "type": "function"
    },
    {
      "inputs": [
        {
          "internalType": "uint256",
          "name": "",
          "type": "uint256"
        }
      ],
      "name": "tokenMintedOwners",
      "outputs": [
        {
          "internalType": "uint256",
          "name": "tokenId",
          "type": "uint256"
        },
        {
          "internalType": "address",
          "name": "owner",
          "type": "address"
        }
      ],
      "stateMutability": "view",
      "type": "function"
    },
    {
      "inputs": [
        {
          "internalType": "uint256",
          "name": "tokenId",
          "type": "uint256"
        }
      ],
      "name": "tokenURI",
      "outputs": [
        {
          "internalType": "string",
          "name": "",
          "type": "string"
        }
      ],
      "stateMutability": "view",
      "type": "function"
    },
    {
      "inputs": [
        {
          "internalType": "address",
          "name": "addressMint",
          "type": "address"
        },
        {
          "internalType": "uint256",
          "name": "tokenId",
          "type": "uint256"
        }
      ],
      "name": "transfer",
      "outputs": [],
      "stateMutability": "nonpayable",
      "type": "function"
    },
    {
      "inputs": [
        {
          "internalType": "address",
          "name": "from",
          "type": "address"
        },
        {
          "internalType": "address",
          "name": "to",
          "type": "address"
        },
        {
          "internalType": "uint256",
          "name": "tokenId",
          "type": "uint256"
        }
      ],
      "name": "transferFrom",
      "outputs": [],
      "stateMutability": "nonpayable",
      "type": "function"
    },
    {
      "inputs": [
        {
          "internalType": "address",
          "name": "newOwner",
          "type": "address"
        }
      ],
      "name": "transferOwnership",
      "outputs": [],
      "stateMutability": "nonpayable",
      "type": "function"
    },
    {
      "inputs": [
        {
          "internalType": "bytes32[]",
          "name": "merkleProof",
          "type": "bytes32[]"
        }
      ],
      "name": "verifyMerkleTree",
      "outputs": [
        {
          "internalType": "bool",
          "name": "",
          "type": "bool"
        }
      ],
      "stateMutability": "view",
      "type": "function"
    },
    {
      "inputs": [],
      "name": "withdraw",
      "outputs": [],
      "stateMutability": "nonpayable",
      "type": "function"
    }
  ],
  "bytecode": "0x60a06040526000600c556101996080908152506000600d553480156200002457600080fd5b50604051620058be380380620058be83398181016040528101906200004a91906200065b565b733cc6cdda760b79bafa08df41ecfa224f810dceb660016040518060400160405280600a81526020017f34303920414d49474f53000000000000000000000000000000000000000000008152506040518060400160405280600581526020017f414d49474f0000000000000000000000000000000000000000000000000000008152508160009080519060200190620000e59291906200040e565b508060019080519060200190620000fe9291906200040e565b50505062000121620001156200034060201b60201c565b6200034860201b60201c565b600160078190555060006daaeb6d7670e522a718067333cd4e73ffffffffffffffffffffffffffffffffffffffff163b11156200031e578015620001e4576daaeb6d7670e522a718067333cd4e73ffffffffffffffffffffffffffffffffffffffff16637d3e3dbe30846040518363ffffffff1660e01b8152600401620001aa929190620006f1565b600060405180830381600087803b158015620001c557600080fd5b505af1158015620001da573d6000803e3d6000fd5b505050506200031d565b600073ffffffffffffffffffffffffffffffffffffffff168273ffffffffffffffffffffffffffffffffffffffff16146200029e576daaeb6d7670e522a718067333cd4e73ffffffffffffffffffffffffffffffffffffffff1663a0af290330846040518363ffffffff1660e01b815260040162000264929190620006f1565b600060405180830381600087803b1580156200027f57600080fd5b505af115801562000294573d6000803e3d6000fd5b505050506200031c565b6daaeb6d7670e522a718067333cd4e73ffffffffffffffffffffffffffffffffffffffff16634420e486306040518263ffffffff1660e01b8152600401620002e791906200071e565b600060405180830381600087803b1580156200030257600080fd5b505af115801562000317573d6000803e3d6000fd5b505050505b5b5b50508060099080519060200190620003389291906200040e565b50506200079f565b600033905090565b6000600660009054906101000a900473ffffffffffffffffffffffffffffffffffffffff16905081600660006101000a81548173ffffffffffffffffffffffffffffffffffffffff021916908373ffffffffffffffffffffffffffffffffffffffff1602179055508173ffffffffffffffffffffffffffffffffffffffff168173ffffffffffffffffffffffffffffffffffffffff167f8be0079c531659141344cd1fd0a4f28419497f9722a3daafe3b4186f6b6457e060405160405180910390a35050565b8280546200041c906200076a565b90600052602060002090601f0160209004810192826200044057600085556200048c565b82601f106200045b57805160ff19168380011785556200048c565b828001600101855582156200048c579182015b828111156200048b5782518255916020019190600101906200046e565b5b5090506200049b91906200049f565b5090565b5b80821115620004ba576000816000905550600101620004a0565b5090565b6000604051905090565b600080fd5b600080fd5b600080fd5b600080fd5b6000601f19601f8301169050919050565b7f4e487b7100000000000000000000000000000000000000000000000000000000600052604160045260246000fd5b6200052782620004dc565b810181811067ffffffffffffffff82111715620005495762000548620004ed565b5b80604052505050565b60006200055e620004be565b90506200056c82826200051c565b919050565b600067ffffffffffffffff8211156200058f576200058e620004ed565b5b6200059a82620004dc565b9050602081019050919050565b60005b83811015620005c7578082015181840152602081019050620005aa565b83811115620005d7576000848401525b50505050565b6000620005f4620005ee8462000571565b62000552565b905082815260208101848484011115620006135762000612620004d7565b5b62000620848285620005a7565b509392505050565b600082601f83011262000640576200063f620004d2565b5b815162000652848260208601620005dd565b91505092915050565b600060208284031215620006745762000673620004c8565b5b600082015167ffffffffffffffff811115620006955762000694620004cd565b5b620006a38482850162000628565b91505092915050565b600073ffffffffffffffffffffffffffffffffffffffff82169050919050565b6000620006d982620006ac565b9050919050565b620006eb81620006cc565b82525050565b6000604082019050620007086000830185620006e0565b620007176020830184620006e0565b9392505050565b6000602082019050620007356000830184620006e0565b92915050565b7f4e487b7100000000000000000000000000000000000000000000000000000000600052602260045260246000fd5b600060028204905060018216806200078357607f821691505b6020821081036200079957620007986200073b565b5b50919050565b6080516150f5620007c960003960008181610fb70152818161179e0152611cad01526150f56000f3fe60806040526004361061020f5760003560e01c80638924af7411610118578063bdab381b116100a0578063d5abeb011161006f578063d5abeb01146107c7578063e985e9c5146107f2578063ec3ef69f1461082f578063f2fde38b1461085a578063f51f96dd146108835761020f565b8063bdab381b146106d2578063c87b56dd14610710578063c884ef831461074d578063cad96cca1461078a5761020f565b80639f181b5e116100e75780639f181b5e14610603578063a22cb4651461062e578063a9059cbb14610657578063b88d4fde14610680578063bd32fb66146106a95761020f565b80638924af74146105435780638da5cb5b146105815780638e027f91146105ac57806395d89b41146105d85761020f565b806342842e0e1161019b5780636352211e1161016a5780636352211e1461045c5780636c0360eb1461049957806370a08231146104c45780637129b82514610501578063715018a61461052c5761020f565b806342842e0e146103b157806345de0d9b146103da57806355f804b3146103f65780635de3c7191461041f5761020f565b8063143094db116101e2578063143094db146102e25780631919fed71461030b578063201bebe31461033457806323b872dd146103715780633ccfd60b1461039a5761020f565b806301ffc9a71461021457806306fdde0314610251578063081812fc1461027c578063095ea7b3146102b9575b600080fd5b34801561022057600080fd5b5061023b60048036038101906102369190613439565b6108ae565b6040516102489190613481565b60405180910390f35b34801561025d57600080fd5b50610266610916565b6040516102739190613535565b60405180910390f35b34801561028857600080fd5b506102a3600480360381019061029e919061358d565b6109a8565b6040516102b091906135fb565b60405180910390f35b3480156102c557600080fd5b506102e060048036038101906102db9190613642565b6109ee565b005b3480156102ee57600080fd5b5061030960048036038101906103049190613704565b610b05565b005b34801561031757600080fd5b50610332600480360381019061032d919061358d565b610c0c565b005b34801561034057600080fd5b5061035b60048036038101906103569190613757565b610c1e565b6040516103689190613793565b60405180910390f35b34801561037d57600080fd5b50610398600480360381019061039391906137ae565b610c36565b005b3480156103a657600080fd5b506103af610d42565b005b3480156103bd57600080fd5b506103d860048036038101906103d391906137ae565b610d99565b005b6103f460048036038101906103ef9190613866565b610ea5565b005b34801561040257600080fd5b5061041d600480360381019061041891906139f6565b6112d8565b005b34801561042b57600080fd5b5061044660048036038101906104419190613a3f565b6112fa565b6040516104539190613481565b60405180910390f35b34801561046857600080fd5b50610483600480360381019061047e919061358d565b61137d565b60405161049091906135fb565b60405180910390f35b3480156104a557600080fd5b506104ae611403565b6040516104bb9190613535565b60405180910390f35b3480156104d057600080fd5b506104eb60048036038101906104e69190613757565b611491565b6040516104f89190613793565b60405180910390f35b34801561050d57600080fd5b50610516611548565b6040516105239190613b88565b60405180910390f35b34801561053857600080fd5b50610541611607565b005b34801561054f57600080fd5b5061056a60048036038101906105659190613baa565b61161b565b604051610578929190613c08565b60405180910390f35b34801561058d57600080fd5b50610596611690565b6040516105a391906135fb565b60405180910390f35b3480156105b857600080fd5b506105c16116ba565b6040516105cf929190613c31565b60405180910390f35b3480156105e457600080fd5b506105ed6116e6565b6040516105fa9190613535565b60405180910390f35b34801561060f57600080fd5b50610618611778565b6040516106259190613793565b60405180910390f35b34801561063a57600080fd5b5061065560048036038101906106509190613c86565b61177e565b005b34801561066357600080fd5b5061067e60048036038101906106799190613642565b611794565b005b34801561068c57600080fd5b506106a760048036038101906106a29190613d67565b611999565b005b3480156106b557600080fd5b506106d060048036038101906106cb9190613e20565b611aa7565b005b3480156106de57600080fd5b506106f960048036038101906106f4919061358d565b611ab9565b604051610707929190613e4d565b60405180910390f35b34801561071c57600080fd5b506107376004803603810190610732919061358d565b611b0d565b6040516107449190613535565b60405180910390f35b34801561075957600080fd5b50610774600480360381019061076f9190613757565b611b89565b6040516107819190613481565b60405180910390f35b34801561079657600080fd5b506107b160048036038101906107ac919061358d565b611ba9565b6040516107be9190613f72565b60405180910390f35b3480156107d357600080fd5b506107dc611cab565b6040516107e99190613793565b60405180910390f35b3480156107fe57600080fd5b5061081960048036038101906108149190613f94565b611ccf565b6040516108269190613481565b60405180910390f35b34801561083b57600080fd5b50610844611d63565b6040516108519190614083565b60405180910390f35b34801561086657600080fd5b50610881600480360381019061087c9190613757565b611dbb565b005b34801561088f57600080fd5b50610898611e3e565b6040516108a59190613793565b60405180910390f35b60006344c74bcc60e01b7bffffffffffffffffffffffffffffffffffffffffffffffffffffffff1916827bffffffffffffffffffffffffffffffffffffffffffffffffffffffff1916036109055760019050610911565b61090e82611e44565b90505b919050565b606060008054610925906140d4565b80601f0160208091040260200160405190810160405280929190818152602001828054610951906140d4565b801561099e5780601f106109735761010080835404028352916020019161099e565b820191906000526020600020905b81548152906001019060200180831161098157829003601f168201915b5050505050905090565b60006109b382611f26565b6004600083815260200190815260200160002060009054906101000a900473ffffffffffffffffffffffffffffffffffffffff169050919050565b60006109f98261137d565b90508073ffffffffffffffffffffffffffffffffffffffff168373ffffffffffffffffffffffffffffffffffffffff1603610a69576040517f08c379a0000000000000000000000000000000000000000000000000000000008152600401610a6090614177565b60405180910390fd5b8073ffffffffffffffffffffffffffffffffffffffff16610a88611f71565b73ffffffffffffffffffffffffffffffffffffffff161480610ab75750610ab681610ab1611f71565b611ccf565b5b610af6576040517f08c379a0000000000000000000000000000000000000000000000000000000008152600401610aed90614209565b60405180910390fd5b610b008383611f79565b505050565b610b0d612032565b6000600167ffffffffffffffff811115610b2a57610b296138cb565b5b604051908082528060200260200182016040528015610b6357816020015b610b506132ec565b815260200190600190039081610b485790505b5090508181600081518110610b7b57610b7a614229565b5b6020026020010151602001906bffffffffffffffffffffffff1690816bffffffffffffffffffffffff16815250508281600081518110610bbe57610bbd614229565b5b60200260200101516000019073ffffffffffffffffffffffffffffffffffffffff16908173ffffffffffffffffffffffffffffffffffffffff1681525050610c0684826120b0565b50505050565b610c14612032565b80600d8190555050565b60106020528060005260406000206000915090505481565b60006daaeb6d7670e522a718067333cd4e73ffffffffffffffffffffffffffffffffffffffff163b1115610d32576daaeb6d7670e522a718067333cd4e73ffffffffffffffffffffffffffffffffffffffff1663c617113430336040518363ffffffff1660e01b8152600401610cad929190614258565b6020604051808303816000875af1158015610ccc573d6000803e3d6000fd5b505050506040513d601f19601f82011682018060405250810190610cf09190614296565b610d3157336040517fede71dcc000000000000000000000000000000000000000000000000000000008152600401610d2891906135fb565b60405180910390fd5b5b610d3d8383836122ad565b505050565b610d4a612032565b60004790503373ffffffffffffffffffffffffffffffffffffffff166108fc829081150290604051600060405180830381858888f19350505050158015610d95573d6000803e3d6000fd5b5050565b60006daaeb6d7670e522a718067333cd4e73ffffffffffffffffffffffffffffffffffffffff163b1115610e95576daaeb6d7670e522a718067333cd4e73ffffffffffffffffffffffffffffffffffffffff1663c617113430336040518363ffffffff1660e01b8152600401610e10929190614258565b6020604051808303816000875af1158015610e2f573d6000803e3d6000fd5b505050506040513d601f19601f82011682018060405250810190610e539190614296565b610e9457336040517fede71dcc000000000000000000000000000000000000000000000000000000008152600401610e8b91906135fb565b60405180910390fd5b5b610ea083838361230d565b505050565b8282600a54610f1c838380806020026020016040519081016040528093929190818152602001838360200280828437600081840152601f19601f820116905080830192505050505050508233604051602001610f01919061430b565b6040516020818303038152906040528051906020012061232d565b610f5b576040517f08c379a0000000000000000000000000000000000000000000000000000000008152600401610f5290614398565b60405180910390fd5b600d546001348183610f6d91906143e7565b14610fad576040517f08c379a0000000000000000000000000000000000000000000000000000000008152600401610fa49061448d565b60405180910390fd5b610fb5612344565b7f0000000000000000000000000000000000000000000000000000000000000000600c54111561101a576040517f08c379a00000000000000000000000000000000000000000000000000000000081526004016110119061451f565b60405180910390fd5b600f60003373ffffffffffffffffffffffffffffffffffffffff1673ffffffffffffffffffffffffffffffffffffffff16815260200190815260200160002060009054906101000a900460ff16156110a7576040517f08c379a000000000000000000000000000000000000000000000000000000000815260040161109e906145b1565b60405180910390fd5b6110b13387612393565b600c60008154809291906110c4906145d1565b9190505550600b86908060018154018082558091505060019003906000526020600020016000909190919091505585601060003373ffffffffffffffffffffffffffffffffffffffff1673ffffffffffffffffffffffffffffffffffffffff16815260200190815260200160002081905550600060405180604001604052808881526020013373ffffffffffffffffffffffffffffffffffffffff168152509050600e8190806001815401808255809150506001900390600052602060002090600202016000909190919091506000820151816000015560208201518160010160006101000a81548173ffffffffffffffffffffffffffffffffffffffff021916908373ffffffffffffffffffffffffffffffffffffffff16021790555050503373ffffffffffffffffffffffffffffffffffffffff16611203611690565b73ffffffffffffffffffffffffffffffffffffffff1614611277576001600f60003373ffffffffffffffffffffffffffffffffffffffff1673ffffffffffffffffffffffffffffffffffffffff16815260200190815260200160002060006101000a81548160ff0219169083151502179055505b3373ffffffffffffffffffffffffffffffffffffffff167fdee6961c63e1e04aaaf4f5d72d14927b189488763179688429797ee6a104cf38886040516112bd9190613793565b60405180910390a2506112ce6125b0565b5050505050505050565b6112e0612032565b80600990805190602001906112f692919061332a565b5050565b6000803360405160200161130e919061430b565b604051602081830303815290604052805190602001209050611374848480806020026020016040519081016040528093929190818152602001838360200280828437600081840152601f19601f82011690508083019250505050505050600a548361232d565b91505092915050565b600080611389836125ba565b9050600073ffffffffffffffffffffffffffffffffffffffff168173ffffffffffffffffffffffffffffffffffffffff16036113fa576040517f08c379a00000000000000000000000000000000000000000000000000000000081526004016113f190614665565b60405180910390fd5b80915050919050565b60098054611410906140d4565b80601f016020809104026020016040519081016040528092919081815260200182805461143c906140d4565b80156114895780601f1061145e57610100808354040283529160200191611489565b820191906000526020600020905b81548152906001019060200180831161146c57829003601f168201915b505050505081565b60008073ffffffffffffffffffffffffffffffffffffffff168273ffffffffffffffffffffffffffffffffffffffff1603611501576040517f08c379a00000000000000000000000000000000000000000000000000000000081526004016114f8906146f7565b60405180910390fd5b600360008373ffffffffffffffffffffffffffffffffffffffff1673ffffffffffffffffffffffffffffffffffffffff168152602001908152602001600020549050919050565b6060600e805480602002602001604051908101604052809291908181526020016000905b828210156115fe5783829060005260206000209060020201604051806040016040529081600082015481526020016001820160009054906101000a900473ffffffffffffffffffffffffffffffffffffffff1673ffffffffffffffffffffffffffffffffffffffff1673ffffffffffffffffffffffffffffffffffffffff16815250508152602001906001019061156c565b50505050905090565b61160f612032565b61161960006125f7565b565b6008602052816000526040600020818154811061163757600080fd5b90600052602060002001600091509150508060000160009054906101000a900473ffffffffffffffffffffffffffffffffffffffff16908060000160149054906101000a90046bffffffffffffffffffffffff16905082565b6000600660009054906101000a900473ffffffffffffffffffffffffffffffffffffffff16905090565b60008060003090506000670de0b6b3a7640000476116d89190614746565b905081819350935050509091565b6060600180546116f5906140d4565b80601f0160208091040260200160405190810160405280929190818152602001828054611721906140d4565b801561176e5780601f106117435761010080835404028352916020019161176e565b820191906000526020600020905b81548152906001019060200180831161175157829003601f168201915b5050505050905090565b600c5481565b611790611789611f71565b83836126bd565b5050565b61179c612344565b7f0000000000000000000000000000000000000000000000000000000000000000600c541115611801576040517f08c379a00000000000000000000000000000000000000000000000000000000081526004016117f89061451f565b60405180910390fd5b61180b8282612393565b600c600081548092919061181e906145d1565b9190505550600b81908060018154018082558091505060019003906000526020600020016000909190919091505580601060008473ffffffffffffffffffffffffffffffffffffffff1673ffffffffffffffffffffffffffffffffffffffff16815260200190815260200160002081905550600060405180604001604052808381526020018473ffffffffffffffffffffffffffffffffffffffff168152509050600e8190806001815401808255809150506001900390600052602060002090600202016000909190919091506000820151816000015560208201518160010160006101000a81548173ffffffffffffffffffffffffffffffffffffffff021916908373ffffffffffffffffffffffffffffffffffffffff16021790555050508273ffffffffffffffffffffffffffffffffffffffff167fdee6961c63e1e04aaaf4f5d72d14927b189488763179688429797ee6a104cf38836040516119849190613793565b60405180910390a2506119956125b0565b5050565b60006daaeb6d7670e522a718067333cd4e73ffffffffffffffffffffffffffffffffffffffff163b1115611a95576daaeb6d7670e522a718067333cd4e73ffffffffffffffffffffffffffffffffffffffff1663c617113430336040518363ffffffff1660e01b8152600401611a10929190614258565b6020604051808303816000875af1158015611a2f573d6000803e3d6000fd5b505050506040513d601f19601f82011682018060405250810190611a539190614296565b611a9457336040517fede71dcc000000000000000000000000000000000000000000000000000000008152600401611a8b91906135fb565b60405180910390fd5b5b611aa184848484612829565b50505050565b611aaf612032565b80600a8190555050565b600e8181548110611ac957600080fd5b90600052602060002090600202016000915090508060000154908060010160009054906101000a900473ffffffffffffffffffffffffffffffffffffffff16905082565b6060611b188261288b565b611b57576040517f08c379a0000000000000000000000000000000000000000000000000000000008152600401611b4e906147e9565b60405180910390fd5b6009611b62836128cc565b604051602001611b73929190614925565b6040516020818303038152906040529050919050565b600f6020528060005260406000206000915054906101000a900460ff1681565b606060086000838152602001908152602001600020805480602002602001604051908101604052809291908181526020016000905b82821015611ca0578382906000526020600020016040518060400160405290816000820160009054906101000a900473ffffffffffffffffffffffffffffffffffffffff1673ffffffffffffffffffffffffffffffffffffffff1673ffffffffffffffffffffffffffffffffffffffff1681526020016000820160149054906101000a90046bffffffffffffffffffffffff166bffffffffffffffffffffffff166bffffffffffffffffffffffff168152505081526020019060010190611bde565b505050509050919050565b7f000000000000000000000000000000000000000000000000000000000000000081565b6000600560008473ffffffffffffffffffffffffffffffffffffffff1673ffffffffffffffffffffffffffffffffffffffff16815260200190815260200160002060008373ffffffffffffffffffffffffffffffffffffffff1673ffffffffffffffffffffffffffffffffffffffff16815260200190815260200160002060009054906101000a900460ff16905092915050565b6060600b805480602002602001604051908101604052809291908181526020018280548015611db157602002820191906000526020600020905b815481526020019060010190808311611d9d575b5050505050905090565b611dc3612032565b600073ffffffffffffffffffffffffffffffffffffffff168173ffffffffffffffffffffffffffffffffffffffff1603611e32576040517f08c379a0000000000000000000000000000000000000000000000000000000008152600401611e29906149c6565b60405180910390fd5b611e3b816125f7565b50565b600d5481565b60007f80ac58cd000000000000000000000000000000000000000000000000000000007bffffffffffffffffffffffffffffffffffffffffffffffffffffffff1916827bffffffffffffffffffffffffffffffffffffffffffffffffffffffff19161480611f0f57507f5b5e139f000000000000000000000000000000000000000000000000000000007bffffffffffffffffffffffffffffffffffffffffffffffffffffffff1916827bffffffffffffffffffffffffffffffffffffffffffffffffffffffff1916145b80611f1f5750611f1e8261299a565b5b9050919050565b611f2f8161288b565b611f6e576040517f08c379a0000000000000000000000000000000000000000000000000000000008152600401611f6590614665565b60405180910390fd5b50565b600033905090565b816004600083815260200190815260200160002060006101000a81548173ffffffffffffffffffffffffffffffffffffffff021916908373ffffffffffffffffffffffffffffffffffffffff160217905550808273ffffffffffffffffffffffffffffffffffffffff16611fec8361137d565b73ffffffffffffffffffffffffffffffffffffffff167f8c5be1e5ebec7d5bd14f71427d1e84f3dd0314c0f7b2291e5b200ac8c7c3b92560405160405180910390a45050565b61203a611f71565b73ffffffffffffffffffffffffffffffffffffffff16612058611690565b73ffffffffffffffffffffffffffffffffffffffff16146120ae576040517f08c379a00000000000000000000000000000000000000000000000000000000081526004016120a590614a32565b60405180910390fd5b565b60005b815181101561229e57600073ffffffffffffffffffffffffffffffffffffffff168282815181106120e7576120e6614229565b5b60200260200101516000015173ffffffffffffffffffffffffffffffffffffffff1603612149576040517f08c379a000000000000000000000000000000000000000000000000000000000815260040161214090614a9e565b60405180910390fd5b600082828151811061215e5761215d614229565b5b6020026020010151602001516bffffffffffffffffffffffff16036121b8576040517f08c379a00000000000000000000000000000000000000000000000000000000081526004016121af90614b0a565b60405180910390fd5b600860008481526020019081526020016000208282815181106121de576121dd614229565b5b60200260200101519080600181540180825580915050600190039060005260206000200160009091909190915060008201518160000160006101000a81548173ffffffffffffffffffffffffffffffffffffffff021916908373ffffffffffffffffffffffffffffffffffffffff16021790555060208201518160000160146101000a8154816bffffffffffffffffffffffff02191690836bffffffffffffffffffffffff16021790555050508080612296906145d1565b9150506120b3565b506122a98282612a04565b5050565b6122be6122b8611f71565b82612a41565b6122fd576040517f08c379a00000000000000000000000000000000000000000000000000000000081526004016122f490614b9c565b60405180910390fd5b612308838383612ad6565b505050565b61232883838360405180602001604052806000815250611999565b505050565b60008261233a8584612dcf565b1490509392505050565b600260075403612389576040517f08c379a000000000000000000000000000000000000000000000000000000000815260040161238090614c08565b60405180910390fd5b6002600781905550565b600073ffffffffffffffffffffffffffffffffffffffff168273ffffffffffffffffffffffffffffffffffffffff1603612402576040517f08c379a00000000000000000000000000000000000000000000000000000000081526004016123f990614c74565b60405180910390fd5b61240b8161288b565b1561244b576040517f08c379a000000000000000000000000000000000000000000000000000000000815260040161244290614ce0565b60405180910390fd5b612459600083836001612e25565b6124628161288b565b156124a2576040517f08c379a000000000000000000000000000000000000000000000000000000000815260040161249990614ce0565b60405180910390fd5b6001600360008473ffffffffffffffffffffffffffffffffffffffff1673ffffffffffffffffffffffffffffffffffffffff16815260200190815260200160002060008282540192505081905550816002600083815260200190815260200160002060006101000a81548173ffffffffffffffffffffffffffffffffffffffff021916908373ffffffffffffffffffffffffffffffffffffffff160217905550808273ffffffffffffffffffffffffffffffffffffffff16600073ffffffffffffffffffffffffffffffffffffffff167fddf252ad1be2c89b69c2b068fc378daa952ba7f163c4a11628f55a4df523b3ef60405160405180910390a46125ac600083836001612f4b565b5050565b6001600781905550565b60006002600083815260200190815260200160002060009054906101000a900473ffffffffffffffffffffffffffffffffffffffff169050919050565b6000600660009054906101000a900473ffffffffffffffffffffffffffffffffffffffff16905081600660006101000a81548173ffffffffffffffffffffffffffffffffffffffff021916908373ffffffffffffffffffffffffffffffffffffffff1602179055508173ffffffffffffffffffffffffffffffffffffffff168173ffffffffffffffffffffffffffffffffffffffff167f8be0079c531659141344cd1fd0a4f28419497f9722a3daafe3b4186f6b6457e060405160405180910390a35050565b8173ffffffffffffffffffffffffffffffffffffffff168373ffffffffffffffffffffffffffffffffffffffff160361272b576040517f08c379a000000000000000000000000000000000000000000000000000000000815260040161272290614d4c565b60405180910390fd5b80600560008573ffffffffffffffffffffffffffffffffffffffff1673ffffffffffffffffffffffffffffffffffffffff16815260200190815260200160002060008473ffffffffffffffffffffffffffffffffffffffff1673ffffffffffffffffffffffffffffffffffffffff16815260200190815260200160002060006101000a81548160ff0219169083151502179055508173ffffffffffffffffffffffffffffffffffffffff168373ffffffffffffffffffffffffffffffffffffffff167f17307eab39ab6107e8899845ad3d59bd9653f200f220920489ca2b5937696c318360405161281c9190613481565b60405180910390a3505050565b61283a612834611f71565b83612a41565b612879576040517f08c379a000000000000000000000000000000000000000000000000000000000815260040161287090614b9c565b60405180910390fd5b61288584848484612f51565b50505050565b60008073ffffffffffffffffffffffffffffffffffffffff166128ad836125ba565b73ffffffffffffffffffffffffffffffffffffffff1614159050919050565b6060600060016128db84612fad565b01905060008167ffffffffffffffff8111156128fa576128f96138cb565b5b6040519080825280601f01601f19166020018201604052801561292c5781602001600182028036833780820191505090505b509050600082602001820190505b60011561298f578080600190039150507f3031323334353637383961626364656600000000000000000000000000000000600a86061a8153600a858161298357612982614717565b5b0494506000850361293a575b819350505050919050565b60007f01ffc9a7000000000000000000000000000000000000000000000000000000007bffffffffffffffffffffffffffffffffffffffffffffffffffffffff1916827bffffffffffffffffffffffffffffffffffffffffffffffffffffffff1916149050919050565b7f3fa96d7b6bcbfe71ef171666d84db3cf52fa2d1c8afdb1cc8e486177f208b7df8282604051612a35929190614d6c565b60405180910390a15050565b600080612a4d8361137d565b90508073ffffffffffffffffffffffffffffffffffffffff168473ffffffffffffffffffffffffffffffffffffffff161480612a8f5750612a8e8185611ccf565b5b80612acd57508373ffffffffffffffffffffffffffffffffffffffff16612ab5846109a8565b73ffffffffffffffffffffffffffffffffffffffff16145b91505092915050565b8273ffffffffffffffffffffffffffffffffffffffff16612af68261137d565b73ffffffffffffffffffffffffffffffffffffffff1614612b4c576040517f08c379a0000000000000000000000000000000000000000000000000000000008152600401612b4390614e0e565b60405180910390fd5b600073ffffffffffffffffffffffffffffffffffffffff168273ffffffffffffffffffffffffffffffffffffffff1603612bbb576040517f08c379a0000000000000000000000000000000000000000000000000000000008152600401612bb290614ea0565b60405180910390fd5b612bc88383836001612e25565b8273ffffffffffffffffffffffffffffffffffffffff16612be88261137d565b73ffffffffffffffffffffffffffffffffffffffff1614612c3e576040517f08c379a0000000000000000000000000000000000000000000000000000000008152600401612c3590614e0e565b60405180910390fd5b6004600082815260200190815260200160002060006101000a81549073ffffffffffffffffffffffffffffffffffffffff02191690556001600360008573ffffffffffffffffffffffffffffffffffffffff1673ffffffffffffffffffffffffffffffffffffffff168152602001908152602001600020600082825403925050819055506001600360008473ffffffffffffffffffffffffffffffffffffffff1673ffffffffffffffffffffffffffffffffffffffff16815260200190815260200160002060008282540192505081905550816002600083815260200190815260200160002060006101000a81548173ffffffffffffffffffffffffffffffffffffffff021916908373ffffffffffffffffffffffffffffffffffffffff160217905550808273ffffffffffffffffffffffffffffffffffffffff168473ffffffffffffffffffffffffffffffffffffffff167fddf252ad1be2c89b69c2b068fc378daa952ba7f163c4a11628f55a4df523b3ef60405160405180910390a4612dca8383836001612f4b565b505050565b60008082905060005b8451811015612e1a57612e0582868381518110612df857612df7614229565b5b6020026020010151613100565b91508080612e12906145d1565b915050612dd8565b508091505092915050565b6001811115612f4557600073ffffffffffffffffffffffffffffffffffffffff168473ffffffffffffffffffffffffffffffffffffffff1614612eb95780600360008673ffffffffffffffffffffffffffffffffffffffff1673ffffffffffffffffffffffffffffffffffffffff1681526020019081526020016000206000828254612eb19190614ec0565b925050819055505b600073ffffffffffffffffffffffffffffffffffffffff168373ffffffffffffffffffffffffffffffffffffffff1614612f445780600360008573ffffffffffffffffffffffffffffffffffffffff1673ffffffffffffffffffffffffffffffffffffffff1681526020019081526020016000206000828254612f3c9190614ef4565b925050819055505b5b50505050565b50505050565b612f5c848484612ad6565b612f688484848461312b565b612fa7576040517f08c379a0000000000000000000000000000000000000000000000000000000008152600401612f9e90614fbc565b60405180910390fd5b50505050565b600080600090507a184f03e93ff9f4daa797ed6e38ed64bf6a1f010000000000000000831061300b577a184f03e93ff9f4daa797ed6e38ed64bf6a1f010000000000000000838161300157613000614717565b5b0492506040810190505b6d04ee2d6d415b85acef81000000008310613048576d04ee2d6d415b85acef8100000000838161303e5761303d614717565b5b0492506020810190505b662386f26fc10000831061307757662386f26fc10000838161306d5761306c614717565b5b0492506010810190505b6305f5e10083106130a0576305f5e100838161309657613095614717565b5b0492506008810190505b61271083106130c55761271083816130bb576130ba614717565b5b0492506004810190505b606483106130e857606483816130de576130dd614717565b5b0492506002810190505b600a83106130f7576001810190505b80915050919050565b60008183106131185761311382846132b2565b613123565b61312283836132b2565b5b905092915050565b600061314c8473ffffffffffffffffffffffffffffffffffffffff166132c9565b156132a5578373ffffffffffffffffffffffffffffffffffffffff1663150b7a02613175611f71565b8786866040518563ffffffff1660e01b81526004016131979493929190615031565b6020604051808303816000875af19250505080156131d357506040513d601f19601f820116820180604052508101906131d09190615092565b60015b613255573d8060008114613203576040519150601f19603f3d011682016040523d82523d6000602084013e613208565b606091505b50600081510361324d576040517f08c379a000000000000000000000000000000000000000000000000000000000815260040161324490614fbc565b60405180910390fd5b805181602001fd5b63150b7a0260e01b7bffffffffffffffffffffffffffffffffffffffffffffffffffffffff1916817bffffffffffffffffffffffffffffffffffffffffffffffffffffffff1916149150506132aa565b600190505b949350505050565b600082600052816020526040600020905092915050565b6000808273ffffffffffffffffffffffffffffffffffffffff163b119050919050565b6040518060400160405280600073ffffffffffffffffffffffffffffffffffffffff16815260200160006bffffffffffffffffffffffff1681525090565b828054613336906140d4565b90600052602060002090601f016020900481019282613358576000855561339f565b82601f1061337157805160ff191683800117855561339f565b8280016001018555821561339f579182015b8281111561339e578251825591602001919060010190613383565b5b5090506133ac91906133b0565b5090565b5b808211156133c95760008160009055506001016133b1565b5090565b6000604051905090565b600080fd5b600080fd5b60007fffffffff0000000000000000000000000000000000000000000000000000000082169050919050565b613416816133e1565b811461342157600080fd5b50565b6000813590506134338161340d565b92915050565b60006020828403121561344f5761344e6133d7565b5b600061345d84828501613424565b91505092915050565b60008115159050919050565b61347b81613466565b82525050565b60006020820190506134966000830184613472565b92915050565b600081519050919050565b600082825260208201905092915050565b60005b838110156134d65780820151818401526020810190506134bb565b838111156134e5576000848401525b50505050565b6000601f19601f8301169050919050565b60006135078261349c565b61351181856134a7565b93506135218185602086016134b8565b61352a816134eb565b840191505092915050565b6000602082019050818103600083015261354f81846134fc565b905092915050565b6000819050919050565b61356a81613557565b811461357557600080fd5b50565b60008135905061358781613561565b92915050565b6000602082840312156135a3576135a26133d7565b5b60006135b184828501613578565b91505092915050565b600073ffffffffffffffffffffffffffffffffffffffff82169050919050565b60006135e5826135ba565b9050919050565b6135f5816135da565b82525050565b600060208201905061361060008301846135ec565b92915050565b61361f816135da565b811461362a57600080fd5b50565b60008135905061363c81613616565b92915050565b60008060408385031215613659576136586133d7565b5b60006136678582860161362d565b925050602061367885828601613578565b9150509250929050565b600061368d826135ba565b9050919050565b61369d81613682565b81146136a857600080fd5b50565b6000813590506136ba81613694565b92915050565b60006bffffffffffffffffffffffff82169050919050565b6136e1816136c0565b81146136ec57600080fd5b50565b6000813590506136fe816136d8565b92915050565b60008060006060848603121561371d5761371c6133d7565b5b600061372b86828701613578565b935050602061373c868287016136ab565b925050604061374d868287016136ef565b9150509250925092565b60006020828403121561376d5761376c6133d7565b5b600061377b8482850161362d565b91505092915050565b61378d81613557565b82525050565b60006020820190506137a86000830184613784565b92915050565b6000806000606084860312156137c7576137c66133d7565b5b60006137d58682870161362d565b93505060206137e68682870161362d565b92505060406137f786828701613578565b9150509250925092565b600080fd5b600080fd5b600080fd5b60008083601f84011261382657613825613801565b5b8235905067ffffffffffffffff81111561384357613842613806565b5b60208301915083602082028301111561385f5761385e61380b565b5b9250929050565b60008060006040848603121561387f5761387e6133d7565b5b600084013567ffffffffffffffff81111561389d5761389c6133dc565b5b6138a986828701613810565b935093505060206138bc86828701613578565b9150509250925092565b600080fd5b7f4e487b7100000000000000000000000000000000000000000000000000000000600052604160045260246000fd5b613903826134eb565b810181811067ffffffffffffffff82111715613922576139216138cb565b5b80604052505050565b60006139356133cd565b905061394182826138fa565b919050565b600067ffffffffffffffff821115613961576139606138cb565b5b61396a826134eb565b9050602081019050919050565b82818337600083830152505050565b600061399961399484613946565b61392b565b9050828152602081018484840111156139b5576139b46138c6565b5b6139c0848285613977565b509392505050565b600082601f8301126139dd576139dc613801565b5b81356139ed848260208601613986565b91505092915050565b600060208284031215613a0c57613a0b6133d7565b5b600082013567ffffffffffffffff811115613a2a57613a296133dc565b5b613a36848285016139c8565b91505092915050565b60008060208385031215613a5657613a556133d7565b5b600083013567ffffffffffffffff811115613a7457613a736133dc565b5b613a8085828601613810565b92509250509250929050565b600081519050919050565b600082825260208201905092915050565b6000819050602082019050919050565b613ac181613557565b82525050565b613ad0816135da565b82525050565b604082016000820151613aec6000850182613ab8565b506020820151613aff6020850182613ac7565b50505050565b6000613b118383613ad6565b60408301905092915050565b6000602082019050919050565b6000613b3582613a8c565b613b3f8185613a97565b9350613b4a83613aa8565b8060005b83811015613b7b578151613b628882613b05565b9750613b6d83613b1d565b925050600181019050613b4e565b5085935050505092915050565b60006020820190508181036000830152613ba28184613b2a565b905092915050565b60008060408385031215613bc157613bc06133d7565b5b6000613bcf85828601613578565b9250506020613be085828601613578565b9150509250929050565b613bf381613682565b82525050565b613c02816136c0565b82525050565b6000604082019050613c1d6000830185613bea565b613c2a6020830184613bf9565b9392505050565b6000604082019050613c4660008301856135ec565b613c536020830184613784565b9392505050565b613c6381613466565b8114613c6e57600080fd5b50565b600081359050613c8081613c5a565b92915050565b60008060408385031215613c9d57613c9c6133d7565b5b6000613cab8582860161362d565b9250506020613cbc85828601613c71565b9150509250929050565b600067ffffffffffffffff821115613ce157613ce06138cb565b5b613cea826134eb565b9050602081019050919050565b6000613d0a613d0584613cc6565b61392b565b905082815260208101848484011115613d2657613d256138c6565b5b613d31848285613977565b509392505050565b600082601f830112613d4e57613d4d613801565b5b8135613d5e848260208601613cf7565b91505092915050565b60008060008060808587031215613d8157613d806133d7565b5b6000613d8f8782880161362d565b9450506020613da08782880161362d565b9350506040613db187828801613578565b925050606085013567ffffffffffffffff811115613dd257613dd16133dc565b5b613dde87828801613d39565b91505092959194509250565b6000819050919050565b613dfd81613dea565b8114613e0857600080fd5b50565b600081359050613e1a81613df4565b92915050565b600060208284031215613e3657613e356133d7565b5b6000613e4484828501613e0b565b91505092915050565b6000604082019050613e626000830185613784565b613e6f60208301846135ec565b9392505050565b600081519050919050565b600082825260208201905092915050565b6000819050602082019050919050565b613eab81613682565b82525050565b613eba816136c0565b82525050565b604082016000820151613ed66000850182613ea2565b506020820151613ee96020850182613eb1565b50505050565b6000613efb8383613ec0565b60408301905092915050565b6000602082019050919050565b6000613f1f82613e76565b613f298185613e81565b9350613f3483613e92565b8060005b83811015613f65578151613f4c8882613eef565b9750613f5783613f07565b925050600181019050613f38565b5085935050505092915050565b60006020820190508181036000830152613f8c8184613f14565b905092915050565b60008060408385031215613fab57613faa6133d7565b5b6000613fb98582860161362d565b9250506020613fca8582860161362d565b9150509250929050565b600081519050919050565b600082825260208201905092915050565b6000819050602082019050919050565b600061400c8383613ab8565b60208301905092915050565b6000602082019050919050565b600061403082613fd4565b61403a8185613fdf565b935061404583613ff0565b8060005b8381101561407657815161405d8882614000565b975061406883614018565b925050600181019050614049565b5085935050505092915050565b6000602082019050818103600083015261409d8184614025565b905092915050565b7f4e487b7100000000000000000000000000000000000000000000000000000000600052602260045260246000fd5b600060028204905060018216806140ec57607f821691505b6020821081036140ff576140fe6140a5565b5b50919050565b7f4552433732313a20617070726f76616c20746f2063757272656e74206f776e6560008201527f7200000000000000000000000000000000000000000000000000000000000000602082015250565b60006141616021836134a7565b915061416c82614105565b604082019050919050565b6000602082019050818103600083015261419081614154565b9050919050565b7f4552433732313a20617070726f76652063616c6c6572206973206e6f7420746f60008201527f6b656e206f776e6572206f7220617070726f76656420666f7220616c6c000000602082015250565b60006141f3603d836134a7565b91506141fe82614197565b604082019050919050565b60006020820190508181036000830152614222816141e6565b9050919050565b7f4e487b7100000000000000000000000000000000000000000000000000000000600052603260045260246000fd5b600060408201905061426d60008301856135ec565b61427a60208301846135ec565b9392505050565b60008151905061429081613c5a565b92915050565b6000602082840312156142ac576142ab6133d7565b5b60006142ba84828501614281565b91505092915050565b60008160601b9050919050565b60006142db826142c3565b9050919050565b60006142ed826142d0565b9050919050565b614305614300826135da565b6142e2565b82525050565b600061431782846142f4565b60148201915081905092915050565b7f4164647265737320646f6573206e6f7420657869737420696e2077686974656c60008201527f6973740000000000000000000000000000000000000000000000000000000000602082015250565b60006143826023836134a7565b915061438d82614326565b604082019050919050565b600060208201905081810360008301526143b181614375565b9050919050565b7f4e487b7100000000000000000000000000000000000000000000000000000000600052601160045260246000fd5b60006143f282613557565b91506143fd83613557565b9250817fffffffffffffffffffffffffffffffffffffffffffffffffffffffffffffffff0483118215151615614436576144356143b8565b5b828202905092915050565b7f496e636f7272656374204554482076616c75652073656e740000000000000000600082015250565b60006144776018836134a7565b915061448282614441565b602082019050919050565b600060208201905081810360008301526144a68161446a565b9050919050565b7f4d6178696d756d206e756d626572206f6620746f6b656e7320616c6c6f77656460008201527f2077617320726561636865642028343039290000000000000000000000000000602082015250565b60006145096032836134a7565b9150614514826144ad565b604082019050919050565b60006020820190508181036000830152614538816144fc565b9050919050565b7f4f6e6c79206f6e6520746f6b656e20697320616c6c6f7765642070657220616460008201527f6472657373000000000000000000000000000000000000000000000000000000602082015250565b600061459b6025836134a7565b91506145a68261453f565b604082019050919050565b600060208201905081810360008301526145ca8161458e565b9050919050565b60006145dc82613557565b91507fffffffffffffffffffffffffffffffffffffffffffffffffffffffffffffffff820361460e5761460d6143b8565b5b600182019050919050565b7f4552433732313a20696e76616c696420746f6b656e2049440000000000000000600082015250565b600061464f6018836134a7565b915061465a82614619565b602082019050919050565b6000602082019050818103600083015261467e81614642565b9050919050565b7f4552433732313a2061646472657373207a65726f206973206e6f74206120766160008201527f6c6964206f776e65720000000000000000000000000000000000000000000000602082015250565b60006146e16029836134a7565b91506146ec82614685565b604082019050919050565b60006020820190508181036000830152614710816146d4565b9050919050565b7f4e487b7100000000000000000000000000000000000000000000000000000000600052601260045260246000fd5b600061475182613557565b915061475c83613557565b92508261476c5761476b614717565b5b828204905092915050565b7f4572726f723a20517565727920666f72206e6f6e6578697374656e7420746f6b60008201527f656e000000000000000000000000000000000000000000000000000000000000602082015250565b60006147d36022836134a7565b91506147de82614777565b604082019050919050565b60006020820190508181036000830152614802816147c6565b9050919050565b600081905092915050565b60008190508160005260206000209050919050565b60008154614836816140d4565b6148408186614809565b9450600182166000811461485b576001811461486c5761489f565b60ff1983168652818601935061489f565b61487585614814565b60005b8381101561489757815481890152600182019150602081019050614878565b838801955050505b50505092915050565b60006148b38261349c565b6148bd8185614809565b93506148cd8185602086016134b8565b80840191505092915050565b7f2e6a736f6e000000000000000000000000000000000000000000000000000000600082015250565b600061490f600583614809565b915061491a826148d9565b600582019050919050565b60006149318285614829565b915061493d82846148a8565b915061494882614902565b91508190509392505050565b7f4f776e61626c653a206e6577206f776e657220697320746865207a65726f206160008201527f6464726573730000000000000000000000000000000000000000000000000000602082015250565b60006149b06026836134a7565b91506149bb82614954565b604082019050919050565b600060208201905081810360008301526149df816149a3565b9050919050565b7f4f776e61626c653a2063616c6c6572206973206e6f7420746865206f776e6572600082015250565b6000614a1c6020836134a7565b9150614a27826149e6565b602082019050919050565b60006020820190508181036000830152614a4b81614a0f565b9050919050565b7f526563697069656e742073686f756c642062652070726573656e740000000000600082015250565b6000614a88601b836134a7565b9150614a9382614a52565b602082019050919050565b60006020820190508181036000830152614ab781614a7b565b9050919050565b7f526f79616c74792076616c75652073686f756c6420626520706f736974697665600082015250565b6000614af46020836134a7565b9150614aff82614abe565b602082019050919050565b60006020820190508181036000830152614b2381614ae7565b9050919050565b7f4552433732313a2063616c6c6572206973206e6f7420746f6b656e206f776e6560008201527f72206f7220617070726f76656400000000000000000000000000000000000000602082015250565b6000614b86602d836134a7565b9150614b9182614b2a565b604082019050919050565b60006020820190508181036000830152614bb581614b79565b9050919050565b7f5265656e7472616e637947756172643a207265656e7472616e742063616c6c00600082015250565b6000614bf2601f836134a7565b9150614bfd82614bbc565b602082019050919050565b60006020820190508181036000830152614c2181614be5565b9050919050565b7f4552433732313a206d696e7420746f20746865207a65726f2061646472657373600082015250565b6000614c5e6020836134a7565b9150614c6982614c28565b602082019050919050565b60006020820190508181036000830152614c8d81614c51565b9050919050565b7f4552433732313a20746f6b656e20616c7265616479206d696e74656400000000600082015250565b6000614cca601c836134a7565b9150614cd582614c94565b602082019050919050565b60006020820190508181036000830152614cf981614cbd565b9050919050565b7f4552433732313a20617070726f766520746f2063616c6c657200000000000000600082015250565b6000614d366019836134a7565b9150614d4182614d00565b602082019050919050565b60006020820190508181036000830152614d6581614d29565b9050919050565b6000604082019050614d816000830185613784565b8181036020830152614d938184613f14565b90509392505050565b7f4552433732313a207472616e736665722066726f6d20696e636f72726563742060008201527f6f776e6572000000000000000000000000000000000000000000000000000000602082015250565b6000614df86025836134a7565b9150614e0382614d9c565b604082019050919050565b60006020820190508181036000830152614e2781614deb565b9050919050565b7f4552433732313a207472616e7366657220746f20746865207a65726f2061646460008201527f7265737300000000000000000000000000000000000000000000000000000000602082015250565b6000614e8a6024836134a7565b9150614e9582614e2e565b604082019050919050565b60006020820190508181036000830152614eb981614e7d565b9050919050565b6000614ecb82613557565b9150614ed683613557565b925082821015614ee957614ee86143b8565b5b828203905092915050565b6000614eff82613557565b9150614f0a83613557565b9250827fffffffffffffffffffffffffffffffffffffffffffffffffffffffffffffffff03821115614f3f57614f3e6143b8565b5b828201905092915050565b7f4552433732313a207472616e7366657220746f206e6f6e20455243373231526560008201527f63656976657220696d706c656d656e7465720000000000000000000000000000602082015250565b6000614fa66032836134a7565b9150614fb182614f4a565b604082019050919050565b60006020820190508181036000830152614fd581614f99565b9050919050565b600081519050919050565b600082825260208201905092915050565b600061500382614fdc565b61500d8185614fe7565b935061501d8185602086016134b8565b615026816134eb565b840191505092915050565b600060808201905061504660008301876135ec565b61505360208301866135ec565b6150606040830185613784565b81810360608301526150728184614ff8565b905095945050505050565b60008151905061508c8161340d565b92915050565b6000602082840312156150a8576150a76133d7565b5b60006150b68482850161507d565b9150509291505056fea2646970667358221220ebfb6ee5d643fa2ac45e2194a958cbd71845d2f04cf431e3a4c7a2c7bb2ad40d64736f6c634300080d0033",
  "linkReferences": {},
  "deployedLinkReferences": {}
}